{
  "_format": "hh-sol-artifact-1",
  "contractName": "WavePortal",
  "sourceName": "contracts/WavePortal.sol",
  "abi": [
    {
      "inputs": [],
      "stateMutability": "nonpayable",
      "type": "constructor"
    },
    {
      "anonymous": false,
      "inputs": [
        {
          "indexed": true,
          "internalType": "address",
          "name": "from",
          "type": "address"
        },
        {
          "indexed": false,
          "internalType": "uint256",
          "name": "timestamp",
          "type": "uint256"
        },
        {
          "indexed": false,
          "internalType": "string",
          "name": "message",
          "type": "string"
        }
      ],
      "name": "NewWave",
      "type": "event"
    },
    {
      "inputs": [],
      "name": "getAllWaves",
      "outputs": [
        {
          "components": [
            {
              "internalType": "address",
              "name": "waver",
              "type": "address"
            },
            {
              "internalType": "string",
              "name": "message",
              "type": "string"
            },
            {
              "internalType": "uint256",
              "name": "timestamp",
              "type": "uint256"
            }
          ],
          "internalType": "struct WavePortal.Wave[]",
          "name": "",
          "type": "tuple[]"
        }
      ],
      "stateMutability": "view",
      "type": "function"
    },
    {
      "inputs": [],
      "name": "getTotalWaves",
      "outputs": [
        {
          "internalType": "uint256",
          "name": "",
          "type": "uint256"
        }
      ],
      "stateMutability": "view",
      "type": "function"
    },
    {
      "inputs": [
        {
          "internalType": "string",
          "name": "_message",
          "type": "string"
        }
      ],
      "name": "wave",
      "outputs": [],
      "stateMutability": "nonpayable",
      "type": "function"
    },
    {
      "inputs": [
        {
          "internalType": "address",
          "name": "",
          "type": "address"
        }
      ],
      "name": "waveMap",
      "outputs": [
        {
          "internalType": "uint256",
          "name": "",
          "type": "uint256"
        }
      ],
      "stateMutability": "view",
      "type": "function"
    }
  ],
  "bytecode": "0x60806040523480156200001157600080fd5b506200005d6040518060400160405280601281526020017f52454545454545454545454545454545454500000000000000000000000000008152506200006360201b620004551760201c565b620001f7565b62000103816040516024016200007a919062000170565b6040516020818303038152906040527f41304fac000000000000000000000000000000000000000000000000000000007bffffffffffffffffffffffffffffffffffffffffffffffffffffffff19166020820180517bffffffffffffffffffffffffffffffffffffffffffffffffffffffff83818316178352505050506200010660201b60201c565b50565b60008151905060006a636f6e736f6c652e6c6f679050602083016000808483855afa5050505050565b60006200013c8262000194565b6200014881856200019f565b93506200015a818560208601620001b0565b6200016581620001e6565b840191505092915050565b600060208201905081810360008301526200018c81846200012f565b905092915050565b600081519050919050565b600082825260208201905092915050565b60005b83811015620001d0578082015181840152602081019050620001b3565b83811115620001e0576000848401525b50505050565b6000601f19601f8301169050919050565b610c3f80620002076000396000f3fe608060405234801561001057600080fd5b506004361061004c5760003560e01c8063449d46c0146100515780639a2cdc081461006d578063bd43a9081461008b578063d409d421146100a9575b600080fd5b61006b600480360381019061006691906106ff565b6100d9565b005b6100756102e3565b6040516100829190610949565b60405180910390f35b6100936102ec565b6040516100a091906108c7565b60405180910390f35b6100c360048036038101906100be91906106d6565b61043d565b6040516100d09190610949565b60405180910390f35b6000808154809291906100eb90610b0b565b9190505550600160003373ffffffffffffffffffffffffffffffffffffffff1673ffffffffffffffffffffffffffffffffffffffff168152602001908152602001600020600081548092919061014090610b0b565b9190505550600260405180606001604052803373ffffffffffffffffffffffffffffffffffffffff16815260200183815260200142815250908060018154018082558091505060019003906000526020600020906003020160009091909190915060008201518160000160006101000a81548173ffffffffffffffffffffffffffffffffffffffff021916908373ffffffffffffffffffffffffffffffffffffffff16021790555060208201518160010190805190602001906102049291906105b6565b506040820151816002015550506102906040518060400160405280601681526020017f2573206861732077617665642025642074696d6573210000000000000000000081525033600160003373ffffffffffffffffffffffffffffffffffffffff1673ffffffffffffffffffffffffffffffffffffffff168152602001908152602001600020546104ee565b3373ffffffffffffffffffffffffffffffffffffffff167f5f7e16dc676677766a70e9c5628aa6c54ddb8b6e5188e2ae1e1f17f1ffbea71642836040516102d8929190610964565b60405180910390a250565b60008054905090565b60606002805480602002602001604051908101604052809291908181526020016000905b8282101561043457838290600052602060002090600302016040518060600160405290816000820160009054906101000a900473ffffffffffffffffffffffffffffffffffffffff1673ffffffffffffffffffffffffffffffffffffffff1673ffffffffffffffffffffffffffffffffffffffff16815260200160018201805461039990610ad9565b80601f01602080910402602001604051908101604052809291908181526020018280546103c590610ad9565b80156104125780601f106103e757610100808354040283529160200191610412565b820191906000526020600020905b8154815290600101906020018083116103f557829003601f168201915b5050505050815260200160028201548152505081526020019060010190610310565b50505050905090565b60016020528060005260406000206000915090505481565b6104eb8160405160240161046991906108e9565b6040516020818303038152906040527f41304fac000000000000000000000000000000000000000000000000000000007bffffffffffffffffffffffffffffffffffffffffffffffffffffffff19166020820180517bffffffffffffffffffffffffffffffffffffffffffffffffffffffff838183161783525050505061058d565b50565b6105888383836040516024016105069392919061090b565b6040516020818303038152906040527f07c81217000000000000000000000000000000000000000000000000000000007bffffffffffffffffffffffffffffffffffffffffffffffffffffffff19166020820180517bffffffffffffffffffffffffffffffffffffffffffffffffffffffff838183161783525050505061058d565b505050565b60008151905060006a636f6e736f6c652e6c6f679050602083016000808483855afa5050505050565b8280546105c290610ad9565b90600052602060002090601f0160209004810192826105e4576000855561062b565b82601f106105fd57805160ff191683800117855561062b565b8280016001018555821561062b579182015b8281111561062a57825182559160200191906001019061060f565b5b509050610638919061063c565b5090565b5b8082111561065557600081600090555060010161063d565b5090565b600061066c610667846109c5565b610994565b90508281526020810184848401111561068457600080fd5b61068f848285610a97565b509392505050565b6000813590506106a681610bf2565b92915050565b600082601f8301126106bd57600080fd5b81356106cd848260208601610659565b91505092915050565b6000602082840312156106e857600080fd5b60006106f684828501610697565b91505092915050565b60006020828403121561071157600080fd5b600082013567ffffffffffffffff81111561072b57600080fd5b610737848285016106ac565b91505092915050565b600061074c8383610859565b905092915050565b61075d81610a5b565b82525050565b61076c81610a5b565b82525050565b600061077d82610a05565b6107878185610a28565b935083602082028501610799856109f5565b8060005b858110156107d557848403895281516107b68582610740565b94506107c183610a1b565b925060208a0199505060018101905061079d565b50829750879550505050505092915050565b60006107f282610a10565b6107fc8185610a39565b935061080c818560208601610aa6565b61081581610be1565b840191505092915050565b600061082b82610a10565b6108358185610a4a565b9350610845818560208601610aa6565b61084e81610be1565b840191505092915050565b60006060830160008301516108716000860182610754565b506020830151848203602086015261088982826107e7565b915050604083015161089e60408601826108a9565b508091505092915050565b6108b281610a8d565b82525050565b6108c181610a8d565b82525050565b600060208201905081810360008301526108e18184610772565b905092915050565b600060208201905081810360008301526109038184610820565b905092915050565b600060608201905081810360008301526109258186610820565b90506109346020830185610763565b61094160408301846108b8565b949350505050565b600060208201905061095e60008301846108b8565b92915050565b600060408201905061097960008301856108b8565b818103602083015261098b8184610820565b90509392505050565b6000604051905081810181811067ffffffffffffffff821117156109bb576109ba610bb2565b5b8060405250919050565b600067ffffffffffffffff8211156109e0576109df610bb2565b5b601f19601f8301169050602081019050919050565b6000819050602082019050919050565b600081519050919050565b600081519050919050565b6000602082019050919050565b600082825260208201905092915050565b600082825260208201905092915050565b600082825260208201905092915050565b6000610a6682610a6d565b9050919050565b600073ffffffffffffffffffffffffffffffffffffffff82169050919050565b6000819050919050565b82818337600083830152505050565b60005b83811015610ac4578082015181840152602081019050610aa9565b83811115610ad3576000848401525b50505050565b60006002820490506001821680610af157607f821691505b60208210811415610b0557610b04610b83565b5b50919050565b6000610b1682610a8d565b91507fffffffffffffffffffffffffffffffffffffffffffffffffffffffffffffffff821415610b4957610b48610b54565b5b600182019050919050565b7f4e487b7100000000000000000000000000000000000000000000000000000000600052601160045260246000fd5b7f4e487b7100000000000000000000000000000000000000000000000000000000600052602260045260246000fd5b7f4e487b7100000000000000000000000000000000000000000000000000000000600052604160045260246000fd5b6000601f19601f8301169050919050565b610bfb81610a5b565b8114610c0657600080fd5b5056fea2646970667358221220e6851d336d6305df043caa4ebbe0b559e9b17916f255d296ca1525278981632364736f6c63430008000033",
  "linkReferences": {},
  "deployedLinkReferences": {}
}